:1000000013C02DC02CC09AC32AC029C06FC327C0FB
:1000100026C025C024C023C079C121C0ADC11FC0E6
:100020001EC01DC01CC01BC011241FBECFEFD1E0DD
:10003000DEBFCDBF11E0A4E0B1E001C01D92A43449
:10004000B107E1F711E0A0E0B1E0EAECFEE002C0A8
:1000500005900D92A430B107D9F7CFD334C7D0CFD4
:1000600096B580911101981730F4EBE2F0E08081B1
:100070008B7F808305C0EBE2F0E080818460808329
:1000800096B580911201981730F4EBE2F0E0808190
:100090008D7F808305C0EBE2F0E080818260808309
:1000A00096B580911301981730F4EBE2F0E080816F
:1000B0008E7F808305C0EBE2F0E0808181608083E9
:1000C00096B580911901981730F4EEE2F0E0808146
:1000D000877F808305C0EEE2F0E0808188608083C6
:1000E00096B580911A01981730F4E8E2F0E080812B
:1000F0008F7D808305C0E8E2F0E0808180628083AC
:1001000096B580911B01981730F4E8E2F0E0808109
:100110008F7E808305C0E8E2F0E08081806180838B
:1001200096B580912101981730F4E8E2F0E08081E3
:10013000877F808305C0E8E2F0E08081886080836B
:1001400096B580912201981730F4E8E2F0E08081C2
:100150008B7F808305C0E8E2F0E08081846080834B
:1001600096B580912301981730F4E8E2F0E08081A1
:100170008D7F808305C0E8E2F0E08081826080832B
:1001800096B580912901981730F4E8E2F0E080817B
:100190008F77808305C0E8E2F0E08081806880830B
:1001A00096B580912A01981730F4EEE2F0E0808154
:1001B0008D7F808305C0EEE2F0E0808182608083E5
:1001C00096B580912B01981730F4E8E2F0E0808139
:1001D0008E7F808305C0E8E2F0E0808181608083CB
:1001E00096B580913101981730F4EBE2F0E0808110
:1001F0008F7D808305C0EBE2F0E0808180628083A8
:1002000096B580913201981730F4EBE2F0E08081EE
:100210008F7B808305C0EBE2F0E080818064808387
:1002200096B580913301981730F4EBE2F0E08081CD
:100230008F77808305C0EBE2F0E080818068808367
:1002400096B580913901981730F4EBE2F0E08081A7
:10025000877F808305C0EBE2F0E080818860808347
:1002600096B580913A01981730F4EBE2F0E0808186
:100270008F7E808305C0EBE2F0E080818061808327
:1002800096B580913B01981730F4EEE2F0E0808162
:100290008B7F80830895EEE2F0E08081846080832C
:1002A0000895EEE2F0E080818E608083E8E2F0E085
:1002B00080818F6B8083EBE2F0E080818FEF808321
:1002C00008950F931F9305E410E0F80180818B7F60
:1002D000808316BCC5DE81E087BDF8018081846023
:1002E00080831F910F910895DCDFA5E4B0E08C912D
:1002F0008B7F8C93EEE6F0E080818360808381E0E9
:1003000087BD16BC8C9184608C9308951F920F92C8
:100310000FB60F9211240F931F932F933F934F9378
:100320005F936F937F938F939F93AF93BF93EF935D
:10033000FF9305E410E0F80180818B7F808390DEDD
:10034000E7E4F0E080818E5F8083F8018081846043
:100350008083FF91EF91BF91AF919F918F917F919A
:100360006F915F914F913F912F911F910F910F903E
:100370000FBE0F901F9018951F920F920FB60F92FD
:1003800011242F933F934F935F936F937F938F939A
:100390009F93AF93BF93EF93FF9393DFFF91EF9101
:1003A000BF91AF919F918F917F916F915F914F918D
:1003B0003F912F910F900FBE0F901F901895362FE1
:1003C000682F70E0631B7109842F90E051D4622F75
:1003D00070E06CD4862F830F0895AF92BF92CF92B6
:1003E000DF92EF92FF920F931F935C017B016A01F2
:1003F000122FFB018081FA016081422F202FDFDF65
:10040000F5018083F7018181F6016181412F202F61
:10041000D6DFF5018183F7018281F6016281412FE8
:10042000202FCDDFF50182831F910F91FF90EF9078
:10043000DF90CF90BF90AF900895FC01262F862FBC
:1004400065E528D4253530F484E5891B80839183C4
:10045000128208952B3A30F4108284E5891B81833F
:1004600092830895922F9B5A822F81958283908345
:1004700011820895FC01DB0180818C9381811196AA
:100480008C931197828112968C93089590E0A1E14C
:10049000B1E0FC01EE0FFF1FEE0FFF1FEE0FFF1F7D
:1004A000EA0FFB1F61934083880F991F880F991FE4
:1004B000880F991FA80FB91F12962C930895EF92D9
:1004C000FF920F931F93E82EF62E042F10E0812F3A
:1004D0006E2D4F2D202FDADF1F5F1630C1F71F91D1
:1004E0000F91FF90EF90089580E060E040E0E7DF3B
:1004F0000895D7DED3D2EDE2F0E080818E60808374
:10050000EAE2F0E080818FEF8083E7E2F0E0908123
:100510008083E4E6F0E080818D688083E0E6F0E0AF
:100520008081877B8083E0DE08950F931F932FD413
:1005300062E370E0CFD3865F80930F018093070161
:1005400026D464E170E0C6D30B97BCF00EE011E056
:1005500081E0F80180831BD40250104064E170E018
:10056000B9D3F801808313D462E370E0B3D3F80108
:100570009081980F90930D0115C00EE011E0F801E5
:10058000108205D40250104065E070E0A3D3F8015A
:100590008083FDD36FE070E09DD3F8019081980FC8
:1005A00090930D01EAE0F1E080818C598083EFD3D4
:1005B000853548F410921001EAD364E670E08AD3DE
:1005C00080930B010EC08A3A40F480910A01815851
:1005D0008093100110920B0104C010921001109230
:1005E0000B01E9E0F1E080818F5F80831F910F9123
:1005F0000895BF92CF92DF92EF92FF920F931F93D5
:10060000DF93CF93CDB7DEB728970FB6F894DEBF50
:100610000FBECDBF7C01B62E8E010F5F1F4F0F2E78
:10062000F9E0CF2EDD24F02DCC0EDD1EC7016B2DA1
:10063000BDD2F80181938F01EC15FD05B9F7C70113
:100640006B2DB4D2082FCE010196FBD210E0081713
:10065000190701F59091090189819817D9F020E0D7
:1006600030E069E071E0AE014F5F5F4FFB01E20FE8
:10067000F31FDA01A20FB31F8C9180832F5F3F4FCE
:100680002830310599F78CE08093040180910F01A7
:100690008093070128960FB6F894DEBF0FBECDBF3A
:1006A000CF91DF911F910F91FF90EF90DF90CF904E
:1006B000BF9008951F93CF93DF93EC01162FF8940A
:1006C000F0DDCE01612F72D28A3A21F4CE01612F82
:1006D00090DF07C0882329F4173019F48BE080934A
:1006E00004017894DF91CF911F9108951F920F928A
:1006F0000FB60F9211242F933F934F935F936F93F5
:100700007F938F939F93AF93BF93EF93FF936099E2
:1007100004C08CE290E060E0CDDFFF91EF91BF91EB
:10072000AF919F918F917F916F915F914F913F9189
:100730002F910F900FBE0F901F9018951F920F9240
:100740000FB60F9211242F933F934F935F936F93A4
:100750007F938F939F93AF93BF93EF93FF9383B157
:1007600088232CF083E290E067E0A4DF0DC01999A4
:1007700005C083E290E061E09DDF06C01A9904C0E5
:1007800083E290E062E096DFFF91EF91BF91AF913D
:100790009F918F917F916F915F914F913F912F9199
:1007A0000F900FBE0F901F9018950F931F93CF932C
:1007B000DF93F89497D18AEAD7D1C9E0D1E001E17B
:1007C00011E08991D1D1C017D107D9F709E011E023
:1007D000C80137D2C9D1F801268130E0C901880F9C
:1007E000991F820F931F90930601809305017894BF
:1007F000DF91CF911F910F9108952F923F924F92C9
:100800005F926F927F928F929F92AF92BF92CF92A0
:10081000DF92EF92FF920F931F93DF93CF93CDB7A9
:10082000DEB728970FB6F894DEBF0FBECDBF86B5F2
:1008300090E0B1D25EDE79DE81E0809308017894A9
:1008400087E367E347E33BDE86E292E020E931E0BD
:10085000F9013197F1F70197D9F70F2EFEE08F2EAE
:10086000F1E09F2EF02D0F2EFCE06F2EF1E07F2E99
:10087000F02D0F2EF1E1AF2EF1E0BF2EF02D0F2E57
:10088000FDE04F2EF1E05F2EF02D120108942108BB
:100890003108C20103979A838983D2011297BC83DE
:1008A000AB83F2013396FE83ED8380910501909135
:1008B00006011816190634F40197909306018093E7
:1008C000050101C0EBD0809104018B3051F4A6E406
:1008D000B0E08C9190E05FD228DEBCE0B0930401E0
:1008E000D6C0809104018C3021F4EFE0E093040144
:1008F000CEC0809104018F3009F0C9C080910701FA
:10090000882321F452DF10920401C1C081508093EA
:100910000701BDC0D4018C91882301F59701EF81B7
:10092000F8859081D3018C91981730F08E2D60E07E
:1009300040E020E0ABDD57C0C901880F991F880F48
:10094000991F880F991F9C012D5F3F4FB501680FBC
:10095000791FC501820F931F8DDD45C0813009F0DD
:1009600042C0F3018081082F0695A701AF81B885A9
:10097000EC91E017A0F4CA01880F991F880F991F06
:10098000880F991F9C012D5F3F4FB501620F731FA8
:100990008A0D9B1D41E451E02E2F1FDD24C0E81776
:1009A000A8F4440F551F440F551F440F551FCA018B
:1009B0000396B501680F791F202F220F2E1BC5014A
:1009C000840F951F41E451E008DD0DC0CA01880F76
:1009D000991F880F991F880F991FB501680F791FFC
:1009E00081E491E047DDEF81F88580818F5F80832E
:1009F00091818917D0F11082D2018C91F1019081FF
:100A0000890FAF81B88511968C93C1D1EF81F8859C
:100A10002181622F70E05ED1280F2183C701880FEA
:100A2000991F880F991F880F991F03966501C80E9B
:100A3000D91EA981BA811C91AAD1EB81FC81608168
:100A400070E06F5F7F4F46D1180FC601612FF5DC54
:100A5000AD81BE818C91882341F099D18F3728F4E4
:100A6000C601E0E1F1E06081E8DC0894E11CF11CE2
:100A70008F819885089698878F8396E0E916F10410
:100A800009F048CF80E29EE40197F1F70ECFA7E18D
:100A9000B1E0B887AF83EE24FF243CCFE4E2F0E07E
:100AA000808189778083E5E2F0E0808186688083B9
:100AB000EBE6F0E0808186688083EDE2F0E0808103
:100AC0008E7F8083EEE2F0E0808181608083EAE6C1
:100AD000F0E0808181608083E8E6F0E080818960D9
:100AE00080830895E8E6F0E08081867F8083EBE6EE
:100AF000F0E0808189778083E4E2F0E0808186689D
:100B00008083E5E2F0E0808186688083EAE6F0E0B9
:100B100080818E7F8083EDE2F0E080818160808340
:100B2000EEE2F0E08081816080830895EEE2F0E003
:100B300080818E7F8083E5E2F0E080818977808309
:100B400080ED97E00197F1F70895EEE2F0E0808103
:100B500081608083E5E2F0E080818668808380EDBB
:100B600097E00197F1F708950F931F93CF93DF93C9
:100B7000182FDCDFEADFC0E0D0E0012F10E0C80171
:100B80000C2E02C0959587950A94E2F780FF02C06B
:100B9000CDDF01C0DADF2196C830D10581F7D5DF7E
:100BA000D4DFDF91CF911F910F9108950F931F9381
:100BB000DF93CF930F92CDB7DEB7FC01198281E0AE
:100BC00090E09C0102C0220F331F6A95E2F7B90141
:100BD000808190E086239723892BD1F7808190E054
:100BE00086239723892BD1F380ED97E00197F1F7C6
:100BF00088EE93E00197F1F740E050E001E010E06B
:100C0000A0EDB7E0808190E086239723892B51F4F3
:100C10002981C801042E02C0880F991F0A94E2F7A7
:100C2000282B2983CD010197F1F74F5F5F4F4830A3
:100C3000510541F789810F90CF91DF911F910F915D
:100C40000895FC01908180E0892728E09CE880FBE2
:100C500086950EF489272A95D1F79181892798E006
:100C60002CE880FB86950EF482279A95D1F708959B
:100C70005527002480FF02C0060E571F660F771FFE
:100C80006115710521F096958795009799F7952F35
:100C9000802D0895991B79E004C0991F961708F0DC
:100CA000961B881F7A95C9F780950895AA1BBB1BD0
:100CB00051E107C0AA1FBB1FA617B70710F0A61B5C
:100CC000B70B881F991F5A95A9F780959095BC017D
:100CD000CD01089597FB092E07260AD077FD04D091
:100CE000E5DF06D000201AF4709561957F4F0895D6
:100CF000F6F7909581959F4F0895A0E0B0E0E2E867
:100D0000F6E090C0EC01A880B980CA80DB80A11415
:100D1000B104C104D10441F484E2A82E89EDB82EB7
:100D20008BE5C82E87E0D82EC601B5012DE133EF43
:100D300041E050E054D027EA31E440E050E036D0C2
:100D40007B018C01C601B5012DE133EF41E050E09C
:100D500046D0CA01B9012CEE34EF4FEF5FEF26D039
:100D60006E0D7F1D801F911F97FF04C06150704062
:100D700080409048688379838A839B839B013F7777
:100D8000C901CDB7DEB7EAE069C0B7DF089580E0FA
:100D900091E0B3DF0895A0E0B0E08093000190936C
:100DA0000101A0930201B09303010895FF27EE27EC
:100DB000BB27AA2760FF04C0A20FB31FE41FF51FC3
:100DC000220F331F441F551F96958795779567957A
:100DD00089F70097760771F7CF01BD01089597FB5A
:100DE000092E05260ED057FD04D04BD00AD0001C8A
:100DF00038F450954095309521953F4F4F4F5F4FB8
:100E00000895F6F790958095709561957F4F8F4F77
:100E10009F4F08952F923F924F925F926F927F92D1
:100E20008F929F92AF92BF92CF92DF92EF92FF92FA
:100E30000F931F93CF93DF93CDB7DEB7CA1BDB0BA6
:100E40000FB6F894DEBF0FBECDBF09942A8839884B
:100E500048885F846E847D848C849B84AA84B98452
:100E6000C884DF80EE80FD800C811B81AA81B9815E
:100E7000CE0FD11D0FB6F894DEBF0FBECDBFED0172
:100E80000895A1E21A2EAA1BBB1BFD010DC0AA1FCB
:100E9000BB1FEE1FFF1FA217B307E407F50720F0E3
:100EA000A21BB30BE40BF50B661F771F881F991F5E
:100EB0001A9469F760957095809590959B01AC01A7
:0A0EC000BD01CF010895F894FFCFA3
:040ECA000100000023
:00000001FF
