:1000000013C02DC02CC0A1C22AC029C076C227C0EF
:1000100026C025C024C023C035C421C05FC41FC072
:100020001EC01DC01CC01BC011241FBECFEFD1E0DD
:10003000DEBFCDBF11E0A0E0B1E0E0E4FDE002C032
:1000400005900D92A430B107D9F711E0A4E0B1E01A
:1000500001C01D92AF35B107E1F7CBD26FC6D0CF4B
:10006000362F682F70E0631B7109842F90E03BD519
:10007000622F70E056D5862F830F0895AF92BF92FE
:10008000CF92DF92EF92FF920F931F935C017B015F
:100090006A01122FFB018081FA016081422F202F1B
:1000A000DFDFF5018083F7018181F6016181412F56
:1000B000202FD6DFF5018183F7018281F60162816D
:1000C000412F202FCDDFF50182831F910F91FF90EB
:1000D000EF90DF90CF90BF90AF900895FC01262F56
:1000E00035E5862F65E511D5253530F484E5891B86
:1000F00080839183128208952B3A30F4108284E534
:10010000891B818392830895822F8B5A381B3283F7
:10011000808311820895DF93CF9300D00F92CDB7E3
:10012000DEB7FC0160817181828190E00F900F90B9
:100130000F90CF91DF910895FC01DB0180818C93BA
:10014000818111968C931197828112968C930895D8
:10015000FC01262F6081822F90E070E0C4D46FEF05
:1001600070E0F3D460836181822F90E070E0BBD4B3
:100170006FEF70E0EAD461836281822F90E070E0DB
:10018000B2D46FEF70E0E1D4628308958F3F9105A0
:1001900019F014F08FEF089597FD80E0089590E036
:1001A000A0E1B1E053E0880F991F5A95E1F7FD01F6
:1001B000E80FF91F60834183A80FB91F12962C9393
:1001C0000895E0E1F1E0808361834283389691E015
:1001D000E034F907C1F70895E0E1F1E010821182FF
:1001E0001282389681E0E034F807C1F708958091D3
:1001F00010018093560180911101E5E5F1E08083C3
:10020000809112018293809118017197808380916F
:1002100019013E96808380911A018293809120017A
:100220008293809121018293809122018293809117
:10023000280136968083809129017297808380916E
:100240002A013B96808380913001809359018091EF
:10025000310180935A018091320180935B0180913A
:100260003801809357018091390180935801809122
:100270003A013A978083089580910701882309F411
:1002800063C08D3061F4E0E1F1E08FEF8083118293
:100290001282389691E0E034F907C1F749C08E30F8
:1002A00061F4E0E1F1E08FEF1082118282833896F1
:1002B00091E0E034F907C1F73BC08B3061F4E0E135
:1002C000F1E08FEF108281831282389691E0E03462
:1002D000F907C1F72DC08F3061F4E0E1F1E08FEF55
:1002E000808381838283389691E0E034F907C1F7F7
:1002F0001FC08630E8F4E0E1F1E010821182128242
:10030000389681E0E034F807C1F78091080190E069
:10031000F09773E0880F991F7A95E1F7DF01A80F36
:10032000B91F1C922FEF11962C93E80FF91F128220
:100330005EDF88E893E120E931E0F9013197F1F7D8
:100340000197D9F710920701089566D21BB884EC83
:1003500099E020E931E0F9013197F1F70197D9F7F8
:100360005BD208954FD462E070E0EFD38F5F80934B
:100370000E01809109018F5F8093090143D480931E
:100380000A018FE780930B013DD464E670E0DDD372
:1003900080930C0137D464E670E0D7D38E5F8093EE
:1003A0000D0180910E01813031F42CD46AE070E0AF
:1003B000CCD38E5F07C0823039F424D462E370E07E
:1003C000C4D3825E80930D011DD46EE170E0BDD375
:1003D0008E5F80930F01809306010895A2D28DB1A4
:1003E0008E608DB98AB18FEF8AB997B187B9E4E68B
:1003F000F0E080818D688083E0E6F0E08081877B9B
:10040000808321D20895BF92CF92DF92EF92FF9224
:100410000F931F93DF93CF93CDB7DEB727970FB618
:10042000F894DEBF0FBECDBF7C01B62E8E010F5FEC
:100430001F4FE8E0CE2ED12CCC0EDD1EC7016B2D58
:10044000F2D2F80181938F01EC15FD05B9F7C701D0
:100450006B2DE9D2082F7E010894E11CF11CC70125
:100460002BD310E008171907E1F490910901898155
:100470009817B9F020E030E0A701F901E75FFE4FDF
:10048000DA01A20FB31F8C9180832F5F3F4F27307B
:10049000310599F78CE08093080180910F018093DA
:1004A000060127960FB6F894DEBF0FBECDBFCF91E1
:1004B000DF911F910F91FF90EF90DF90CF90BF9051
:1004C00008951F93CF93DF93EC01162FF894A4D1D6
:1004D000CE01612FA8D28A3A21F4CE01612F93DF99
:1004E00007C0882329F4173019F48BE080930801A2
:1004F0007894DF91CF911F9108951F920F920FB6BC
:100500000F9211242F933F934F935F936F937F9399
:100510008F939F93AF93BF93EF93FF93609904C022
:100520008CE290E060E0CDDFFF91EF91BF91AF9161
:100530009F918F917F916F915F914F913F912F91FB
:100540000F900FBE0F901F9018951F920F920FB62D
:100550000F9211242F933F934F935F936F937F9349
:100560008F939F93AF93BF93EF93FF931F9904C013
:1005700083E290E067E00BC0199904C083E290E049
:1005800061E005C01A9904C083E290E062E099DF5F
:10059000FF91EF91BF91AF919F918F917F916F915B
:1005A0005F914F913F912F910F900FBE0F901F9031
:1005B0001895CF93DF93F894CCD18AEAF4D1C9E0AF
:1005C000D1E08991F0D181E0C031D807D1F7CE01D7
:1005D000079772D2E8D180910F0190E063E070E05C
:1005E00082D290930501809304017894DF91CF919A
:1005F0000895BF92CF92DF92EF92FF920F931F93D5
:10060000CF93DF93EBDEAEDE789481E08093070139
:100610001CE0B12EB0E2CB2EBEE4DB2E2DDE8091AD
:100620000401909105011816190634F4019790936E
:1006300005018093040101C074D1809108018B30C1
:1006400059F486B590E0E2D28DDEB0920801C0E1A7
:10065000D1E0EE24FF2410C0809108018C30B9F75E
:1006600080910601882321F4A4DF10920801EFCFC6
:10067000815080930601EBCF80910E01813089F487
:100680008F81869586959E81981720F01882198211
:100690001A8228C08B8188838C8189838D818A838B
:1006A00021C08230F9F40F8106953E81B701A3E0A5
:1006B000660F771FAA95E1F7301748F4CB01805FEA
:1006C0009E4F6D5E7E4F4CE551E0232F0AC0202FD8
:1006D000220F231BCB01805F9E4F6D5E7E4F4CE54A
:1006E00051E0CCDC8E818F5F8E839F818917E0F093
:1006F0001E8210910D0186D265E070E026D2180F9F
:100700001F8310910A017ED29701F3E0220F331F5D
:10071000FA95E1F760910C0170E017D2180FC9014A
:100720008D5E9E4F612FDADC0894E11CF11C289647
:1007300086E0E816F10409F09FCF59DDC601019764
:10074000F1F76CCF41E050E061E070E0FA01E05C6D
:10075000FE4F908186B5891760F42EB1CB01042E2F
:1007600002C0880F991F0A94E2F7809582238EB900
:100770000AC02EB1CB01042E02C0880F991F0A9423
:10078000E2F7282B2EB94F5F5F4F44305105F1F649
:1007900040E050E061E070E0342FFA01E45BFE4F8E
:1007A000908186B5891760F428B1CB01042E02C070
:1007B000880F991F0A94E2F78095822388B90AC0AE
:1007C00028B1CB01042E02C0880F991F0A94E2F7CA
:1007D000282B28B9FA01EC5AFE4F908186B589176B
:1007E00058F42BB1CB0102C0880F991F3A95E2F75C
:1007F000809582238BB909C02BB1CB0102C0880F31
:10080000991F3A95E2F7282B2BB94F5F5F4F48307D
:10081000510509F0C1CF089580E090E0FC01E05C53
:10082000FE4F108201968C319105C1F78BDF089540
:1008300085B58B7F85BD16BC85DF81E087BD85B51D
:10084000846085BD089580E090E0FC01E05CFE4F8F
:10085000108201968C319105C1F785B58B7F85BDDE
:1008600080916E00836080936E0081E087BD16BC2E
:1008700085B5846085BD0895E0E4F1E0E80FF11DE1
:10088000608308951F920F920FB60F9211242F9339
:100890003F934F935F936F937F938F939F93AF9308
:1008A000BF93EF93FF9385B58B7F85BD4BDF87B5F6
:1008B000885F87BD85B5846085BDFF91EF91BF914D
:1008C000AF919F918F917F916F915F914F913F91E8
:1008D0002F910F900FBE0F901F9018951F920F929F
:1008E0000FB60F9211242F933F934F935F936F9303
:1008F0007F938F939F93AF93BF93EF93FF9398DF73
:10090000FF91EF91BF91AF919F918F917F916F91E7
:100910005F914F913F912F910F900FBE0F901F90BD
:10092000189584B1897784B985B1866885B9EBE675
:10093000F0E08081866880836898709AEAE6F0E04B
:10094000808181608083E8E6F0E080818960808337
:100950000895E8E6F0E08081867F8083EBE6F0E0B2
:1009600080818977808384B1866884B985B18668FF
:1009700085B9EAE6F0E080818E7F8083689A709A7C
:100980000895709885B1897785B980ED97E00197D2
:10099000F1F70895709A85B1866885B980ED97E082
:1009A0000197F1F70895709895B1997795B920ED71
:1009B00037E0F9013197F1F7709A95B1966895B9DA
:1009C000F9013197F1F720E030E0482F50E060ED79
:1009D00077E0CA01022E02C0959587950A94E2F746
:1009E00080FF04C0709885B1897703C0709A85B183
:1009F000866885B9CB010197F1F72F5F3F4F28300B
:100A0000310539F7709A85B1866885B920ED37E0F0
:100A1000C9010197F1F7709A85B1866885B9C90156
:100A20000197F1F708950F931F93DF93CF930F92E0
:100A3000CDB7DEB7DC011982E1E0F0E002C0EE0FD5
:100A4000FF1F6A95E2F78C9190E08E239F23892BFC
:100A5000D1F78C9190E08E239F23892BD1F380EDE9
:100A600097E00197F1F788EE93E00197F1F740E006
:100A700050E001E010E060ED77E08C9190E08E2393
:100A80009F23892B51F42981C801042E02C0880FAD
:100A9000991F0A94E2F7282B2983CB010197F1F7DC
:100AA0004F5F5F4F4830510541F789810F90CF91DB
:100AB000DF911F910F910895FC01908180E08927BB
:100AC00028E09CE880FB86950EF489272A95D1F7CB
:100AD0009181892798E02CE880FB86950EF4822787
:100AE0009A95D1F708955527002480FF02C0060E7D
:100AF000571F660F771F6115710521F09695879531
:100B0000009799F7952F802D0895991B79E004C0DF
:100B1000991F961708F0961B881F7A95C9F780953C
:100B20000895AA1BBB1B51E107C0AA1FBB1FA61734
:100B3000B70710F0A61BB70B881F991F5A95A9F786
:100B400080959095BC01CD01089597FB092E07264D
:100B50000AD077FD04D0E5DF06D000201AF47095A6
:100B600061957F4F0895F6F7909581959F4F089571
:100B7000A0E0B0E0EDEBF5E090C0EC01A880B9801A
:100B8000CA80DB80A114B104C104D10441F484E221
:100B9000A82E89EDB82E8BE5C82E87E0D82EC60189
:100BA000B5012DE133EF41E050E054D027EA31E4C4
:100BB00040E050E036D07B018C01C601B5012DE14B
:100BC00033EF41E050E046D0CA01B9012CEE34EFDA
:100BD0004FEF5FEF26D06E0D7F1D801F911F97FF97
:100BE00004C06150704080409048688379838A8354
:100BF0009B839B013F77C901CDB7DEB7EAE069C0AF
:100C0000B7DF089580E091E0B3DF0895A0E0B0E0A1
:100C10008093000190930101A0930201B09303011E
:100C20000895FF27EE27BB27AA2760FF04C0A20F65
:100C3000B31FE41FF51F220F331F441F551F969546
:100C400087957795679589F70097760771F7CF01B4
:100C5000BD01089597FB092E05260ED057FD04D03F
:100C60004BD00AD0001C38F4509540953095219512
:100C70003F4F4F4F5F4F0895F6F7909580957095D1
:100C800061957F4F8F4F9F4F08952F923F924F92C4
:100C90005F926F927F928F929F92AF92BF92CF920C
:100CA000DF92EF92FF920F931F93CF93DF93CDB715
:100CB000DEB7CA1BDB0B0FB6F894DEBF0FBECDBF8D
:100CC00009942A88398848885F846E847D848C845E
:100CD0009B84AA84B984C884DF80EE80FD800C8167
:100CE0001B81AA81B981CE0FD11D0FB6F894DEBF4A
:100CF0000FBECDBFED010895A1E21A2EAA1BBB1BAA
:100D0000FD010DC0AA1FBB1FEE1FFF1FA217B307D7
:100D1000E407F50720F0A21BB30BE40BF50B661FED
:100D2000771F881F991F1A9469F7609570958095B1
:100D300090959B01AC01BD01CF010895F894FFCFC0
:040D400001000000AE
:00000001FF
