:1000000013C02DC02CC0BDC22AC029C092C227C0B7
:1000100026C025C024C023C08AC421C0B4C41FC0C8
:100020001EC01DC01CC01BC011241FBECFEFD1E0DD
:10003000DEBFCDBF11E0A0E0B1E0EAEEFDE002C01E
:1000400005900D92A430B107D9F711E0A4E0B1E01A
:1000500001C01D92A536B107E1F7E7D2C4C6D0CFE3
:10006000362F682F70E0631B7109842F90E090D5C4
:10007000622F70E0ABD5862F830F0895AF92BF92A9
:10008000CF92DF92EF92FF920F931F935C017B015F
:100090006A01122FFB018081FA016081422F202F1B
:1000A000DFDFF5018083F7018181F6016181412F56
:1000B000202FD6DFF5018183F7018281F60162816D
:1000C000412F202FCDDFF50182831F910F91FF90EB
:1000D000EF90DF90CF90BF90AF900895FC01262F56
:1000E00035E5862F65E566D5253530F484E5891B31
:1000F00080839183128208952B3A30F4108284E534
:10010000891B818392830895822F8B5A381B3283F7
:10011000808311820895DF93CF9300D00F92CDB7E3
:10012000DEB7FC0160817181828190E00F900F90B9
:100130000F90CF91DF910895FC01DB0180818C93BA
:10014000818111968C931197828112968C930895D8
:10015000FC01262F6081822F90E070E019D56FEFAF
:1001600070E048D560836181822F90E070E010D507
:100170006FEF70E03FD561836281822F90E070E085
:1001800007D56FEF70E036D5628308958F3F9105F4
:1001900019F014F08FEF089597FD80E008951F93F4
:1001A000382F162FA0E1B1E090E069E070E0F0D4C4
:1001B000FD01E80FF91F1083832F90E069E070E0E4
:1001C000E7D4FD01E80FF91F4183832F90E069E038
:1001D00070E0DED4A80FB91F12962C931F910895DA
:1001E000E0E1F1E0808361834283399691E0E63477
:1001F000F907C1F70895E0E1F1E01082118212825F
:10020000399681E0E634F807C1F70895809110012E
:1002100080935C0180911101EBE5F1E08083809196
:1002200012018293809119017197808380911A0144
:100230003E96808380911B0182938091220182935C
:1002400080912301829380912401829380912B01DC
:100250003696808380912C017297808380912D0146
:100260003B9680838091340180935F0180913501BA
:1002700080936001809136018093610180913D01FE
:1002800080935D0180913E0180935E0180913F01EA
:100290003A978083089580910701882309F462C00A
:1002A0008D3061F4E0E1F1E08FEF80831182128202
:1002B000399691E0E634F907C1F748C08E3061F411
:1002C000E0E1F1E08FEF108211828283399691E0B4
:1002D000E634F907C1F73AC08B3061F4E0E1F1E0B0
:1002E0008FEF108281831282399691E0E634F9070C
:1002F000C1F72CC0863050F5E0E1F1E010821182A8
:100300001282399681E0E634F807C1F7209108019E
:10031000DF01D697822F90E069E070E039D4FD01CB
:10032000E80FF91F1082822F90E069E070E030D46E
:10033000FD01E80FF91F8FEF8183822F90E069E0C4
:1003400070E026D4A80FB91F12961C925FDF88E8D0
:1003500093E120E931E0F9013197F1F70197D9F7FD
:10036000109207010895ADD21BB884EC99E020E902
:1003700031E0F9013197F1F70197D9F7A2D2089549
:100380001F9395D462E070E035D480930E01809184
:1003900009018F5F809309018AD480930A0187D471
:1003A00064E670E027D480930B0180910E018130C8
:1003B00081F47DD465E070E01DD4182F1F5F109389
:1003C0000C0175D464E170E015D4180F10930D0181
:1003D00009C06DD462E370E00DD4825E80930C019D
:1003E00010920D0164D46EE170E004D48E5F8093AE
:1003F0000F018093060181E080930E0192E39093B8
:100400000C0184E680930D0110920A0190930B0178
:100410001F910895DBD28DB18E608DB98AB18FEFB7
:100420008AB997B187B9E4E6F0E080818D6880836E
:10043000E0E6F0E08081877B80835AD20895BF9206
:10044000CF92DF92EF92FF920F931F93DF93CF93A0
:10045000CDB7DEB727970FB6F894DEBF0FBECDBF7E
:100460007C01B62E8E010F5F1F4F88E0C82ED12C65
:10047000CC0EDD1EC7016B2D2BD3F80181938F01AC
:10048000EC15FD05B9F7C7016B2D22D3082F7E01AE
:100490000894E11CF11CC70164D310E00817190788
:1004A000E1F49091090189819817B9F020E030E0DA
:1004B000A701F901E75FFE4FDA01A20FB31F8C918C
:1004C00080832F5F3F4F2730310599F78CE0809371
:1004D000080180910F018093060127960FB6F894CA
:1004E000DEBF0FBECDBFCF91DF911F910F91FF9067
:1004F000EF90DF90CF90BF9008951F93CF93DF933D
:10050000EC01162FF894DDD1CE01612FE1D28A3AA9
:1005100021F4CE01612F93DF07C0882329F417301F
:1005200019F48BE0809308017894DF91CF911F91AB
:1005300008951F920F920FB60F9211242F933F939D
:100540004F935F936F937F938F939F93AF93BF93DB
:10055000EF93FF93609904C08CE290E060E0CDDF00
:10056000FF91EF91BF91AF919F918F917F916F918B
:100570005F914F913F912F910F900FBE0F901F9061
:1005800018951F920F920FB60F9211242F933F933D
:100590004F935F936F937F938F939F93AF93BF938B
:1005A000EF93FF931F9904C083E290E067E00BC0D4
:1005B000199904C083E290E061E005C01A9904C073
:1005C00083E290E062E099DFFF91EF91BF91AF91FC
:1005D0009F918F917F916F915F914F913F912F915B
:1005E0000F900FBE0F901F901895CF93DF93F89444
:1005F00005D28AEA2DD2C9E0D1E0899129D281E0E1
:10060000C031D807D1F7CE010797ABD221D2809164
:100610000F0190E063E070E0BBD2909305018093FE
:1006200004017894DF91CF910895AF92BF92CF9259
:10063000DF92EF92FF920F931F93CF93DF9386B5D4
:1006400090E039D3E7DE9CDE789481E08093070167
:100650003FE0A32E2CE0B22E90E2C92E9EE4D92ECC
:100660001ADE80910401909105011816190634F4E0
:100670000197909305018093040101C0A7D1809157
:1006800008018B3059F486B590E015D379DEB0922D
:100690000801C0E1D1E0EE24FF2420C080910801D0
:1006A0008C3061F4C6E1D1E002D38883299681E0E1
:1006B000CC34D807C9F7A0920801EBCF809108018C
:1006C0008F3039F780910601882321F48EDF109254
:1006D0000801DFCF815080930601DBCF80910E01AE
:1006E000882379F49E8180910C01981720F018825C
:1006F00019821A8243C08B8188838C8189838D8182
:100700003CC08130D9F580910C01082F0695AE814F
:10071000A01798F4C70169E070E03AD29C01205F0D
:100720003E4FC70169E070E033D2BC016D5E7E4F81
:10073000C90142E651E02A2F16C0A817B0F4C7013C
:1007400069E070E025D2FC01E05FFE4FC70169E07F
:1007500070E01ED2BC016D5E7E4F202F220F2A1B3F
:10076000CF0142E651E08ADC09C0809162018883B2
:10077000809163018983809164018A838E818F5F78
:100780008E839F81891728F11E8210910D0180911F
:100790000C01180F1F838BD2612F6695669570E050
:1007A00029D2180F1F8310910A0181D2FC01C701C1
:1007B00069E070E0EDD19C012D5E3E4F60910B0130
:1007C00070E06F5F7F4FCF0115D2180FC901612F05
:1007D00085DC0894E11CF11C299686E0E816F104FA
:1007E00009F07CCF13DDC6010197F1F739CF41E065
:1007F00050E061E070E0FA01EA5BFE4F908186B55F
:10080000891760F42EB1CB01042E02C0880F991F06
:100810000A94E2F7809582238EB90AC02EB1CB01EB
:10082000042E02C0880F991F0A94E2F7282B2EB9D4
:100830004F5F5F4F44305105F1F640E050E061E01A
:1008400070E0342FFA01EE5AFE4F908186B5891779
:1008500060F428B1CB01042E02C0880F991F0A94BE
:10086000E2F78095822388B90AC028B1CB01042E13
:1008700002C0880F991F0A94E2F7282B28B9FA01C1
:10088000E65AFE4F908186B5891758F42BB1CB01FB
:1008900002C0880F991F3A95E2F7809582238BB9A1
:1008A00009C02BB1CB0102C0880F991F3A95E2F71E
:1008B000282B2BB94F5F5F4F4830510509F0C1CF4E
:1008C000089580E090E0FC01EA5BFE4F1082019603
:1008D0008C319105C1F78BDF089585B58B7F85BD80
:1008E00016BC85DF81E087BD85B5846085BD089530
:1008F00080E090E0FC01EA5BFE4F108201968C31B3
:100900009105C1F785B58B7F85BD80916E008360B1
:1009100080936E0081E087BD16BC85B5846085BD7F
:100920000895E6E4F1E0E80FF11D608308951F9259
:100930000F920FB60F9211242F933F934F935F9313
:100940006F937F938F939F93AF93BF93EF93FF9397
:1009500085B58B7F85BD4BDF87B5885F87BD85B546
:10096000846085BDFF91EF91BF91AF919F918F9171
:100970007F916F915F914F913F912F910F900FBE9B
:100980000F901F9018951F920F920FB60F9211247F
:100990002F933F934F935F936F937F938F939F9387
:1009A000AF93BF93EF93FF9398DFFF91EF91BF91C8
:1009B000AF919F918F917F916F915F914F913F91F7
:1009C0002F910F900FBE0F901F90189584B18977CB
:1009D00084B985B1866885B9EBE6F0E080818668E8
:1009E00080836898709AEAE6F0E080818160808375
:1009F000E8E6F0E08081896080830895E8E6F0E031
:100A00008081867F8083EBE6F0E080818977808338
:100A100084B1866884B985B1866885B9EAE6F0E074
:100A200080818E7F8083689A709A0895709885B1CE
:100A3000897785B980ED97E00197F1F70895709A6D
:100A400085B1866885B980ED97E00197F1F7089543
:100A5000709895B1997795B920ED37E0F901319704
:100A6000F1F7709A95B1966895B9F9013197F1F758
:100A700020E030E0482F50E060ED77E0CA01022E20
:100A800002C0959587950A94E2F780FF04C070989C
:100A900085B1897703C0709A85B1866885B9CB0125
:100AA0000197F1F72F5F3F4F2830310539F7709AE2
:100AB00085B1866885B920ED37E0C9010197F1F766
:100AC000709A85B1866885B9C9010197F1F70895D3
:100AD0000F931F93DF93CF930F92CDB7DEB7DC0157
:100AE0001982E1E0F0E002C0EE0FFF1F6A95E2F725
:100AF0008C9190E08E239F23892BD1F78C9190E0ED
:100B00008E239F23892BD1F380ED97E00197F1F796
:100B100088EE93E00197F1F740E050E001E010E04B
:100B200060ED77E08C9190E08E239F23892B51F428
:100B30002981C801042E02C0880F991F0A94E2F788
:100B4000282B2983CB010197F1F74F5F5F4F483086
:100B5000510541F789810F90CF91DF911F910F913E
:100B60000895FC01908180E0892728E09CE880FBC3
:100B700086950EF489272A95D1F79181892798E0E7
:100B80002CE880FB86950EF482279A95D1F708957C
:100B90005527002480FF02C0060E571F660F771FDF
:100BA0006115710521F096958795009799F7952F16
:100BB000802D0895991B79E004C0991F961708F0BD
:100BC000961B881F7A95C9F780950895AA1BBB1BB1
:100BD00051E107C0AA1FBB1FA617B70710F0A61B3D
:100BE000B70B881F991F5A95A9F780959095BC015E
:100BF000CD01089597FB092E07260AD077FD04D072
:100C0000E5DF06D000201AF4709561957F4F0895B6
:100C1000F6F7909581959F4F0895A0E0B0E0E2E14E
:100C2000F6E090C0EC01A880B980CA80DB80A114F6
:100C3000B104C104D10441F484E2A82E89EDB82E98
:100C40008BE5C82E87E0D82EC601B5012DE133EF24
:100C500041E050E054D027EA31E440E050E036D0A3
:100C60007B018C01C601B5012DE133EF41E050E07D
:100C700046D0CA01B9012CEE34EF4FEF5FEF26D01A
:100C80006E0D7F1D801F911F97FF04C06150704043
:100C900080409048688379838A839B839B013F7758
:100CA000C901CDB7DEB7EAE069C0B7DF089580E0DB
:100CB00091E0B3DF0895A0E0B0E08093000190934D
:100CC0000101A0930201B09303010895FF27EE27CD
:100CD000BB27AA2760FF04C0A20FB31FE41FF51FA4
:100CE000220F331F441F551F96958795779567955B
:100CF00089F70097760771F7CF01BD01089597FB3B
:100D0000092E05260ED057FD04D04BD00AD0001C6A
:100D100038F450954095309521953F4F4F4F5F4F98
:100D20000895F6F790958095709561957F4F8F4F58
:100D30009F4F08952F923F924F925F926F927F92B2
:100D40008F929F92AF92BF92CF92DF92EF92FF92DB
:100D50000F931F93CF93DF93CDB7DEB7CA1BDB0B87
:100D60000FB6F894DEBF0FBECDBF09942A8839882C
:100D700048885F846E847D848C849B84AA84B98433
:100D8000C884DF80EE80FD800C811B81AA81B9813F
:100D9000CE0FD11D0FB6F894DEBF0FBECDBFED0153
:100DA0000895A1E21A2EAA1BBB1BFD010DC0AA1FAC
:100DB000BB1FEE1FFF1FA217B307E407F50720F0C4
:100DC000A21BB30BE40BF50B661F771F881F991F3F
:100DD0001A9469F760957095809590959B01AC0188
:0A0DE000BD01CF010895F894FFCF84
:040DEA000100000004
:00000001FF
