:1000000013C02DC02CC0FDC32AC029C0D2C327C035
:1000100026C025C024C023C072C121C0A6C11FC0F4
:100020001EC01DC01CC01BC011241FBECFEFD1E0DD
:10003000DEBFCDBF11E0A4E0B1E001C01D92A3344A
:10004000B107E1F711E0A0E0B1E0E8E6FFE002C0AF
:1000500005900D92A430B107D9F732D483C7D0CF21
:1000600096B580911001981730F4EBE2F0E08081B2
:100070008B7F808305C0EBE2F0E080818460808329
:1000800096B580911101981730F4EBE2F0E0808191
:100090008D7F808305C0EBE2F0E080818260808309
:1000A00096B580911201981730F4EBE2F0E0808170
:1000B0008E7F808305C0EBE2F0E0808181608083E9
:1000C00096B580911801981730F4EEE2F0E0808147
:1000D000877F808305C0EEE2F0E0808188608083C6
:1000E00096B580911901981730F4E8E2F0E080812C
:1000F0008F7D808305C0E8E2F0E0808180628083AC
:1001000096B580911A01981730F4E8E2F0E080810A
:100110008F7E808305C0E8E2F0E08081806180838B
:1001200096B580912001981730F4E8E2F0E08081E4
:10013000877F808305C0E8E2F0E08081886080836B
:1001400096B580912101981730F4E8E2F0E08081C3
:100150008B7F808305C0E8E2F0E08081846080834B
:1001600096B580912201981730F4E8E2F0E08081A2
:100170008D7F808305C0E8E2F0E08081826080832B
:1001800096B580912801981730F4E8E2F0E080817C
:100190008F77808305C0E8E2F0E08081806880830B
:1001A00096B580912901981730F4EEE2F0E0808155
:1001B0008D7F808305C0EEE2F0E0808182608083E5
:1001C00096B580912A01981730F4E8E2F0E080813A
:1001D0008E7F808305C0E8E2F0E0808181608083CB
:1001E0003091300186B5831730F4EBE2F0E0808186
:1001F0008F7D808305C0EBE2F0E0808180628083A8
:100200002091310186B5821730F4EBE2F0E0808175
:100210008F7B808305C0EBE2F0E080818064808387
:100220009091320186B5891730F4EBE2F0E08081DD
:100230008F77808305C0EBE2F0E080818068808367
:1002400086B5831730F4EBE2F0E08081877F80830E
:1002500005C0EBE2F0E080818860808386B582177C
:1002600030F4EBE2F0E080818F7E808305C0EBE22A
:10027000F0E080818061808386B5891730F4EBE2FD
:10028000F0E080818B7F80830895EBE2F0E0808155
:10029000846080830895EEE2F0E08081857F808332
:1002A000E8E2F0E080811082EBE2F0E0808180748F
:1002B000808308950F931F9305E410E0F801808177
:1002C0008B7F808316BCCCDE81E087BDF801808106
:1002D000846080831F910F910895DDDFA5E4B0E075
:1002E0008C918B7F8C93EEE6F0E08081836080833D
:1002F00081E087BD16BC8C9184608C9308951F9219
:100300000F920FB60F9211240F931F932F933F93C9
:100310004F935F936F937F938F939F93AF93BF930D
:10032000EF93FF9305E410E0F80180818B7F8083D9
:1003300097DEE7E4F0E08081885F8083F8018081C8
:1003400084608083FF91EF91BF91AF919F918F91D6
:100350007F916F915F914F913F912F911F910F91DD
:100360000F900FBE0F901F9018951F920F920FB60F
:100370000F9211242F933F934F935F936F937F932B
:100380008F939F93AF93BF93EF93FF9393DFFF916F
:10039000EF91BF91AF919F918F917F916F915F91FD
:1003A0004F913F912F910F900FBE0F901F90189576
:1003B000362F682F70E0631B7109842F90E0A7D45B
:1003C000622F70E0C2D4862F830F0895AF92BF9240
:1003D000CF92DF92EF92FF920F931F935C017B010C
:1003E0006A01122FFB018081FA016081422F202FC8
:1003F000DFDFF5018083F7018181F6016181412F03
:10040000202FD6DFF5018183F7018281F601628119
:10041000412F202FCDDFF50182831F910F91FF9097
:10042000EF90DF90CF90BF90AF900895FC01262F02
:10043000862F65E57ED4253530F484E5891B8083DD
:100440009183128208952B3A30F4108284E5891B3F
:10045000818392830895922F9B5A822F8195828364
:10046000908311820895DF93CF9300D00F92CDB780
:10047000DEB7FC0160817181828190E00F900F9066
:100480000F90CF91DF910895FC01DB0180818C9367
:10049000818111968C931197828112968C93089585
:1004A000FC01262F6081822F90E070E030D46FEF46
:1004B00070E05FD460836181822F90E070E027D488
:1004C0006FEF70E056D461836281822F90E070E01C
:1004D0001ED46FEF70E04DD4628308958F3F910575
:1004E00019F014F08FEF089599230CF480E008952B
:1004F00090E0A0E1B1E0FC01EE0FFF1FEE0FFF1F47
:10050000EE0FFF1FEA0FFB1F61934083880F991FB7
:10051000880F991F880F991FA80FB91F12962C9347
:100520000895EF92FF920F931F93E82EF62E042F5B
:1005300010E0812F6E2D4F2D202FDADF1F5F163038
:10054000C1F71F910F91FF90EF90089580E060E058
:1005500040E0E7DF089580910801882369F18D303C
:1005600029F48FEF60E040E0DCDF1AC08E3029F420
:1005700080E060E04FEFD5DF13C08B3029F480E0DE
:100580006FEF40E0CEDF0CC0863050F480E060E0DA
:1005900040E0C7DF8091040160E04FEF20E0A8DF7A
:1005A00028E833E140E951E0CA010197F1F7215011
:1005B0003040D1F7109208010895BFD2EDE2F0E08B
:1005C00080818E608083EAE2F0E080818FEF80831B
:1005D000E7E2F0E090818083E4E6F0E080818D68DE
:1005E0008083E0E6F0E08081877B808376DE08957B
:1005F000CF92DF92EF92FF920F931F9317D40F2E9B
:10060000FEE0CF2EF1E0DF2EF02D62E070E0B1D3FE
:10061000F60180830F2EFBEFEF2EFFEFFF2EF02D64
:10062000EC0CFD1CF70180818F5F81938F01FED35D
:10063000F8018083FBD364E670E09BD3F7018283EB
:10064000F6018081813099F4F1D365E070E091D3B7
:10065000F82EF3940CE011E0F801F1928F01E6D34B
:1006600064E170E086D3F80EF801F08209C0DED3B1
:1006700062E370E07ED3825EECE0F1E08193108271
:10068000D5D36EE170E075D38E5F80930F018093B8
:10069000070181E080930E0192E390930C0184E6C0
:1006A00080930D0110920A0190930B011F910F91FD
:1006B000FF90EF90DF90CF900895BF92CF92DF929E
:1006C000EF92FF920F931F93DF93CF93CDB7DEB7D7
:1006D00027970FB6F894DEBF0FBECDBF7C01B62EB4
:1006E0008E010F5F1F4FCC24DD246894C3F8CC0E1D
:1006F000DD1EC7016B2DA9D2F80181938F01EC1586
:10070000FD05B9F7C7016B2DA0D2082FCE010196C8
:10071000E7D210E00817190701F5909109018981C6
:100720009817D9F020E030E069E071E0AE014F5F4A
:100730005F4FFB01E20FF31FDA01A20FB31F8C9191
:1007400080832F5F3F4F2730310599F78CE08093EE
:10075000040180910F018093070127960FB6F8944A
:10076000DEBF0FBECDBFCF91DF911F910F91FF90E4
:10077000EF90DF90CF90BF9008951F93CF93DF93BA
:10078000EC01162FF89487DDCE01612F5ED28A3AF4
:1007900021F4CE01612F91DF07C0882329F417309F
:1007A00019F48BE0809304017894DF91CF911F912D
:1007B00008951F920F920FB60F9211242F933F931B
:1007C0004F935F936F937F938F939F93AF93BF9359
:1007D000EF93FF93609904C08CE290E060E0CDDF7E
:1007E000FF91EF91BF91AF919F918F917F916F9109
:1007F0005F914F913F912F910F900FBE0F901F90DF
:1008000018951F920F920FB60F9211242F933F93BA
:100810004F935F936F937F938F939F93AF93BF9308
:10082000EF93FF9383B188232CF083E290E067E09D
:10083000A4DF0DC0199905C083E290E061E09DDF5F
:1008400006C01A9904C083E290E062E096DFFF914F
:10085000EF91BF91AF919F918F917F916F915F9138
:100860004F913F912F910F900FBE0F901F901895B1
:100870000F931F93CF93DF93F89483D18AEAC3D168
:10088000C9E0D1E000E111E08991BDD1C017D107E5
:10089000D9F709E011E0C80123D2B5D1F8012681CA
:1008A00030E0C901880F991F820F931F90930601B2
:1008B000809305017894DF91CF911F910F91089556
:1008C0002F923F924F925F926F927F928F929F9260
:1008D000AF92BF92CF92DF92EF92FF920F931F934E
:1008E000DF93CF9300D000D000D0CDB7DEB786B570
:1008F00090E0A0D262DE7CDE789481E080930801F3
:100900000F2EFEE08F2EF1E09F2EF02D0F2EFCE03B
:100910006F2EF1E07F2EF02D0F2EF0E1AF2EF1E0E3
:10092000BF2EF02D0F2EFDE04F2EF1E05F2EF02DAB
:100930001201089421083108C20103979A83898320
:10094000D2011297BC83AB8306DE809105019091A2
:1009500006011816190634F4019790930601809346
:10096000050101C0EAD0809104018B3051F4E6E426
:10097000F0E0808190E05ED23BDEFCE0F093040189
:10098000D5C0809104018C3079F406E111E04ED29B
:10099000D8018C93085F1F4FB1E006341B07B9F7ED
:1009A000EFE0E0930401C2C0809104018F3009F0B0
:1009B000BDC080910701882321F45ADF1092040101
:1009C000B5C0815080930701B1C0D4018C918823B8
:1009D00001F59701ED81FE819081D3018C919817EB
:1009E00030F08E2D60E040E020E082DD57C0C9018C
:1009F000880F991F880F991F880F991F9C012D5FE1
:100A00003F4FB501680F791FC501820F931F3CDD71
:100A100045C0813009F042C0F3018081082F06955E
:100A2000A701AD81BE81EC91E017A0F4CA01880F47
:100A3000991F880F991F880F991F9C012D5F3F4FA9
:100A4000B501620F731F8A0D9B1D40E451E02E2FEC
:100A5000BDDC24C0E817A8F4440F551F440F551FF0
:100A6000440F551FCA010396B501680F791F202F47
:100A7000220F2E1BC501840F951F40E451E0A6DC18
:100A80000DC0CA01880F991F880F991F880F991FE1
:100A9000B501680F791F80E491E0F6DCED81FE81FD
:100AA00080818F5F80839181891770F11082D201DC
:100AB0001C91F1018081180FAD81BE8111961C93AC
:100AC000B5D1612F6695669570E053D1180FED8111
:100AD000FE811183A981BA811C91A8D19701220FAF
:100AE000331F220F331F220F331F2D5F3F4FEB8128
:100AF000FC81608170E06F5F7F4F3BD1180FC501B3
:100B0000820F931F612F92DC0894E11CF11C8D81F0
:100B10009E8108969E838D8396E0E916F10409F084
:100B200054CF80E29EE40197F1F70ECFA6E1B1E049
:100B3000BE83AD83EE24FF2448CFE4E2F0E0808161
:100B400089778083E5E2F0E0808186688083EBE648
:100B5000F0E0808186688083EDE2F0E080818E7F26
:100B60008083EEE2F0E0808181608083EAE6F0E05D
:100B7000808181608083E8E6F0E080818960808305
:100B80000895E8E6F0E08081867F8083EBE6F0E080
:100B9000808189778083E4E2F0E0808186688083C9
:100BA000E5E2F0E0808186688083EAE6F0E080811B
:100BB0008E7F8083EDE2F0E0808181608083EEE2D1
:100BC000F0E08081816080830895EEE2F0E0808132
:100BD0008E7F8083E5E2F0E080818977808380EDFD
:100BE00097E00197F1F70895EEE2F0E080818160EF
:100BF0008083E5E2F0E080818668808380ED97E085
:100C00000197F1F708950F931F93CF93DF93182F58
:100C1000DCDFEADFC0E0D0E0012F10E0C8010C2EDD
:100C200002C0959587950A94E2F780FF02C0CDDF58
:100C300001C0DADF2196C830D10581F7D5DFD4DFD6
:100C4000DF91CF911F910F9108950F931F93DF9321
:100C5000CF930F92CDB7DEB7FC01198281E090E00F
:100C60009C0102C0220F331F6A95E2F7B90180810F
:100C700090E086239723892BD1F7808190E086230B
:100C80009723892BD1F380ED97E00197F1F788EE58
:100C900093E00197F1F740E050E001E010E0A0EDB3
:100CA000B7E0808190E086239723892B51F4298136
:100CB000C801042E02C0880F991F0A94E2F7282B5E
:100CC0002983CD010197F1F74F5F5F4F4830510500
:100CD00041F789810F90CF91DF911F910F91089576
:100CE000FC01908180E0892728E09CE880FB8695C4
:100CF0000EF489272A95D1F79181892798E02CE86D
:100D000080FB86950EF482279A95D1F70895552792
:100D1000002480FF02C0060E571F660F771F611563
:100D2000710521F096958795009799F7952F802D5D
:100D30000895991B79E004C0991F961708F0961B37
:100D4000881F7A95C9F780950895AA1BBB1B51E1AE
:100D500007C0AA1FBB1FA617B70710F0A61BB70B2B
:100D6000881F991F5A95A9F780959095BC01CD01D0
:100D7000089597FB092E07260AD077FD04D0E5DFFA
:100D800006D000201AF4709561957F4F0895F6F70C
:100D9000909581959F4F0895A0E0B0E0E1EDF6E0D9
:100DA00090C0EC01A880B980CA80DB80A114B10496
:100DB000C104D10441F484E2A82E89EDB82E8BE55C
:100DC000C82E87E0D82EC601B5012DE133EF41E0F2
:100DD00050E054D027EA31E440E050E036D07B01C7
:100DE0008C01C601B5012DE133EF41E050E046D062
:100DF000CA01B9012CEE34EF4FEF5FEF26D06E0D34
:100E00007F1D801F911F97FF04C06150704080407C
:100E10009048688379838A839B839B013F77C901CC
:100E2000CDB7DEB7EAE069C0B7DF089580E091E0B2
:100E3000B3DF0895A0E0B0E080930001909301013A
:100E4000A0930201B09303010895FF27EE27BB276B
:100E5000AA2760FF04C0A20FB31FE41FF51F220FD3
:100E6000331F441F551F969587957795679589F78A
:100E70000097760771F7CF01BD01089597FB092E02
:100E800005260ED057FD04D04BD00AD0001C38F4F4
:100E900050954095309521953F4F4F4F5F4F0895A6
:100EA000F6F790958095709561957F4F8F4F9F4F86
:100EB00008952F923F924F925F926F927F928F92FE
:100EC0009F92AF92BF92CF92DF92EF92FF920F93D9
:100ED0001F93CF93DF93CDB7DEB7CA1BDB0B0FB6E3
:100EE000F894DEBF0FBECDBF09942A8839884888A0
:100EF0005F846E847D848C849B84AA84B984C88436
:100F0000DF80EE80FD800C811B81AA81B981CE0F2C
:100F1000D11D0FB6F894DEBF0FBECDBFED01089511
:100F2000A1E21A2EAA1BBB1BFD010DC0AA1FBB1FED
:100F3000EE1FFF1FA217B307E407F50720F0A21B5F
:100F4000B30BE40BF50B661F771F881F991F1A94CC
:100F500069F760957095809590959B01AC01BD01F6
:080F6000CF010895F894FFCFC2
:040F68000100000084
:00000001FF
